:0420000024EF10F0C9
:082008004C45442041504147C2
:1020100041444F0D0A004C454420454E43454E4433
:1020200049444F0D0A000900F5520DE0F6CF07F0C4
:10203000F7CF08F0F5509EA8FED7AD6E07C0F6FFAB
:1020400008C0F7FFF0D71200F86AD09EB886E10EFC
:10205000AF6E040EB06EA60EAC6E900EAB6E056A3F
:10206000046AC150C00B0F09C16E070EB46E9EBA50
:102070002BD09EAAFED7AECF06F00650300808E15E
:1020800092988998080EF66E200EF76ECCDF1AD063
:102090000650310808E192988988160EF66E200ED7
:1020A000F76EC1DF0FD006503F080CE1928480A488
:1020B00005D0310E9EA8FED7AD6E04D0300E9EA87E
:0A20C000FED7AD6ED6D7D3D70300CC
:020000040030CA
:0E00000007CC3E1E0087A1000FC00FE00F408E
:00000001FF
;PIC18F4550
;CRC=3E41  CREATED="15-oct.-21 18:36"
