:0420000029EF14F0C0
:08200800F76A180FF66E200EB6
:10201000F7220900F5501200280C01060C54656DDA
:102020007065726174757261200A25332E316643C2
:102030000000EA6A160EE96EEF500EE00F0E016E18
:10204000006A002EFED7012EFBD78F0E006E002EE9
:10205000FED70000EF2EF2D712001DB002D08A96F4
:1020600001D08A8693961DB202D08A9801D08A88C0
:1020700093981DB402D08A9A01D08A8A939A1DB689
:1020800002D08A9C01D08A8C939C000093948A840D
:10209000070E006E002EFED700D093948A94120093
:1020A0001E6A93948A84000093861E9081B61E80D7
:1020B00093881E9281B81E82938A1E9481BA1E84D0
:1020C000938C1E9681BC1E8693948A941EC001F048
:1020D000120093928A820000E3DF01C01DF0E0DF6E
:1020E00001C01CF01D38006EF00E001600501C10D0
:1020F000016E7EEF10F093908A90EBD701C01CF038
:1021000001BEFBD71A5203E093908A8002D09390CD
:102110008A90000093928A92000093948A941B38CC
:102120001C6E0F0E1C161CC01DF097DF1B500F0BF2
:102130001C6E1D6E92DF120093908A9093928A9289
:1021400093948A940F0E166E74DF086A0850020882
:1021500008E3030E1D6E81DF050E166E6ADF082A86
:10216000F5D7020E1D6E79DF086A0850030809E3EF
:10217000036A085049DF096E1A6A1B6EBCDF082A21
:10218000F4D73CEF14F0010E135E0CE3EA6A130E71
:10219000E96EEF5007E0020E006E002EFED700D071
:1021A000EF2EF9D7120092908990020E116EFA0E5E
:1021B000136EE9DF112EFBD79280020E116EFA0E1C
:1021C000136EE1DF112EFBD792801200126A1250BB
:1021D00007081BE392908990070E006E002EFED731
:1021E00000D0D890113202E2899001D0898092907B
:1021F000EF0E006E002EFED700D09280070E006E0C
:10220000002EFED700D0122AE2D71200116A115018
:10221000070819E392908990070E006E002EFED7F2
:1022200000D092801F0E006E002EFED700D092804C
:1022300080B002D0D89001D0D8801232780E136EC0
:10224000A2DF112AE4D712C001F012008E0E006E38
:1022500012C001F011C002F0036A12AE05D0011ED7
:10226000021E022A01E1012A015209E102C001F025
:10227000026A080E005E015202E1006A0AD0D8909C
:1022800001BE04D0023601360006F9D712BE01D0D5
:10229000019E1DEF12F01550D8B4A5D0216E195033
:1022A000D8B4A1D0215E05E37F0E2126D8B09BD003
:1022B00006D0810E215ED8A096D0D8B494D021C08B
:1022C00000F0016A026A036A206A16C01FF01F8EBE
:1022D00017C01EF018C01DF0190E216E1C501D5E97
:1022E0000DE2010E1E5E0AE21F5E08E2205E06E2BB
:1022F000202A1F2A1E2A1C501D2628D01B501E5E75
:1023000012E2010E1F5E0FE2205E0DE2202A1F2A5C
:102310001B501E261C501D2619E31E2A17E11F2ADA
:1023200015E1202A13D01A5080091F5E0EE2010E1B
:10233000205E0BE2202A1A5080091F261B501E2601
:10234000E9E31F2AE7E1202AE5D70380212E01D007
:102350000BD0D8901D361E361F362036D890033647
:10236000023601362236BAD722A006D0D8900132E2
:1023700002320332223202D0000635E022BE1ED0E5
:10238000D8901D361E361F3620361C501D5E07E2C3
:10239000010E1E5E04E21F5E02E2205E1AE31B5085
:1023A0001E5E05E2010E1F5E02E2205E12E31A507D
:1023B00080091F5E03E2010E205E0BE3032A09E1A0
:1023C000022A07E1012A05E1002A0DE0013202326A
:1023D000033216C021F01A50211A21AE02D0018E0C
:1023E00006D0019E04D0006A016A026A036A33EFD4
:1023F00012F0086AD8DECC0E116EE8DE440E116EC3
:10240000E5DE085204E102DF01C008F0FAD7CBDEB6
:10241000CC0E116EDBDEBE0E116ED8DEF7DE01C013
:1024200009F0F4DE01C00AF00AC00CF009C00BF09C
:102430000CC012F00BC011F009D703C014F002C099
:1024400013F001C012F000C011F003C018F002C078
:1024500017F001C016F000C015F01C6A1B6A1A6A5A
:10246000830E196E18D703C010F002C00FF001C020
:102470000EF000C00DF0C80E166EDBDD0DC000F0D2
:102480000EC001F00FC002F010C003F041EF14F0D5
:10249000172C01D003D0400E186E01D0186A010E1F
:1024A000165C182618508009196E1A6A1B6E23DEF6
:1024B0007AEF12F015500C0A05E0060A0BE0020A4A
:1024C0000FE013D01A6A010E1B6E15DE020E166E97
:1024D000B0DD10D0010E166E020E176ED9D70AD0DD
:1024E0001A6A100E1B6E07DE05D0010E1A6E15C09B
:1024F0001BF001DE12000900F6CF09F0F7CF0AF059
:10250000F5CF15F0D7DF09C0F6FF0AC0F7FF082E98
:10251000F2D750EF14F01550D8B471D0006E1950A6
:10252000D8B46DD0002604E3810E002668E204D002
:102530007F0E005E64E363E016C01DF01A501D1AA2
:10254000168E1A8E18501C02F4CF1FF017501B0263
:10255000F4CF03F0F3CF1EF01C02F3501F26F4500B
:102560001E22000E032218501B02F3501F26F450A7
:102570001E22000E026A0322022216501C02F35091
:102580001E26F4500322000E022216501B02F350A6
:102590000326F4500222000E016A012218501A028A
:1025A000F3501E26F4500322000E0222012217507F
:1025B0001A02F3500326F4500222000E0122165094
:1025C0001A02F3500226F4500122002A01BE05D05F
:1025D0001E360336023601360006000E1EAE0AD045
:1025E000032A02220122015005E1025003E10350B7
:1025F00001E1002A1DBE018E1DAE019E04D0006ABD
:10260000016A026A036A80EF13F01550B608156E6E
:10261000036A16C019F0168ED89016321732183287
:102620000332023201320032152EF6D719AE0BD02A
:10263000001E011E021E031E002AD8B4012AD8B4AF
:10264000022AD8B4032A93EF13F0D8B203D0EA6A6F
:102650001D0EE96E006A016A026A036A1D6A1E6A3B
:102660001F6A206A1C501B101A1019102CE0200E33
:10267000216ED89015361636173618361D361E368A
:102680001F3620361C50205C08E11B501F5C05E102
:102690001A501E5C02E119501D5C0FE319501D5EBB
:1026A0001A50D8A01A3C1E5E1B50D8A01B3C1F5EBF
:1026B0001C50D8A01C3C205ED88000360136023663
:1026C0000336212ED6D71DC0EFFF1EC0ECFF1FC062
:1026D000ECFF20C0ECFF1200E9500D6E0C500F6EA5
:1026E00019E00BC018F00AC017F009C016F008C0B6
:1026F00015F01C6A1B6A200E1A6E820E196E0BD71B
:1027000003C00BF002C00AF001C009F000C008F0DD
:102710000F2EE7D70BC018F00AC017F009C016F04B
:1027200008C015F072D703C00BF002C00AF001C058
:1027300009F000C008F00BAE0DD00D060D8A081E82
:10274000091E0A1E0B1E082AD8B4092AD8B40A2A60
:10275000D8B40B2A3B0E146E9A0E136ECA0E126E6C
:10276000116A0A0E0F6E0C50D8B40D2AD882EA6A8C
:10277000080EE96E0BC018F00AC017F009C016F079
:1027800008C015F014C01CF013C01BF012C01AF0E2
:1027900011C019F05ADF015000520FE10C280F5CF4
:1027A0000CE00D500CE00F0B0F5C01E037E20DBEAA
:1027B00035D00DBC04D0200E2DD0200E0D160DAA44
:1027C0000CD00D9A0C50D8A40D0600500D6E2D0E95
:1027D000156E70DE0D50006E0D6A0C500F5C0AE134
:1027E00000500D6E2E0E156E65DE0D50006E200E23
:1027F0000D16000E300E0DAA0DD00D9A0C50D8A457
:102800000D0600500D6E2D0E156E54DE0D50006E2F
:102810000D6A300E002600C015F04CDED89214C0B0
:1028200018F013C017F012C016F011C015F01C6A92
:102830001B6A1A6A0A0E196E08DF03C014F002C080
:1028400013F001C012F000C011F00F2E8FD75DEF12
:1028500014F0F86AD09E700ED36ED26A9B6A0F0194
:102860005B6B5C6B5D6B5E6B5F6B9A6A996A986A77
:102870008568F19E000160D4320E166E19EC10F0DE
:10288000B8D503C007F002C006F001C005F000C0D3
:1028900004F01C0EF66E200EF76E0E0E086E2BD690
:1028A000020EE96E07C00BF006C00AF005C009F081
:1028B00004C008F0010E0C6E0FD7430E156EFADD42
:1028C000040E086EFA0E166E19EC10F0082EFAD7E8
:0428D000D7D7030053
:020000040030CA
:0E00000023C85E3C00D3A1000FC00FE00F40EC
:00000001FF
;PIC18F45K50
;CRC=40C2  CREATED="27-sep.-21 14:03"
