:04200000B7EF10F036
:082008008E0E006E07C001F00E
:1020100006C002F0036A015209E102C001F0026A3F
:10202000080E005E015202E1006A08D0D89001BE9D
:1020300004D0023601360006F9D7019EE1EF10F018
:102040000650D8B471D0006E0A50D8B46DD00026B6
:1020500004E3810E002668E204D07F0E005E64E394
:1020600063E007C00EF00B500E1A078E0B8E09505E
:102070000D02F4CF10F008500C02F4CF03F0F3CFB0
:102080000FF00D02F3501026F4500F22000E032221
:1020900009500C02F3501026F4500F22000E026A71
:1020A0000322022207500D02F3500F26F4500322A0
:1020B000000E022207500C02F3500326F4500222B5
:1020C000000E016A012209500B02F3500F26F45052
:1020D0000322000E0222012208500B02F3500326B5
:1020E000F4500222000E012207500B02F350022688
:1020F000F4500122002A01BE05D00F360336023605
:1021000001360006000E0FAE0AD0032A0222012279
:10211000015005E1025003E1035001E1002A0EBE27
:10212000018E0EAE019E04D0006A016A026A036A43
:10213000F2EF10F08E0E006E0550005E06C002F049
:1021400007C001F0028E005209E0D890025202E16D
:10215000015204E002320132002EF7D706AE05D05C
:10216000011E021E012AD8B4022AFBEF10F0F86A01
:10217000D09EC150C00B0F09C16E070EB46E780E11
:102180000609CA6EFE0ECB6E94948B940C0EBD6E37
:10219000B76AB66AC150C00B0E09C16EC050C00B01
:1021A0000109C06EC09EC280000E016EC250C30BFA
:1021B0000110C26EC282C2B2FED7076AC4CF06F057
:1021C00023D703C009F002C008F001C007F000C027
:1021D00006F00A0E0D6ED70E0C6E430E0B6E7F0EC0
:1021E0000A6E2ED703C008F002C007F001C006F047
:1021F00000C005F09FD701C004F004C0BEFFD4D7D3
:022200000300D9
:020000040030CA
:0E00000007CC3E1E0087A1000FC00FE00F408E
:00000001FF
;PIC18F4550
;CRC=851A  CREATED="27-sep.-21 13:52"
