:0420000018EF10F0D5
:08200800EA6A080EE96EEF50D0
:102010000EE00F0E016E006A002EFED7012EFBD7D8
:102020008F0E006E002EFED70000EF2EF2D71200AA
:10203000F86AD09E700ED36ED26A9B6A056A046AF3
:1020400006800F015B6B5C6B5D6B5E6B5F6B9A6A0E
:10205000996A986A000E0609BA6EFF0EBB6E9494D8
:102060008B940C0EBD6EB76AB66A010EB96E5991AB
:102070008B8094908B92949206800550030823E302
:1020800003E10450FB081FE306A01DD0050E042643
:10209000000E052205C002F004C001F00232013238
:1020A00002320132023201C0BEFF02320230300B76
:1020B000006EBD50CF0B0010BD6E280E086E0001E3
:1020C000A3DF0F01DAD70690055203E1045005089B
:1020D0001FE206B01DD0050E045E000E055A05C0B5
:1020E00002F004C001F00232013202320132023247
:1020F00001C0BEFF02320230300B006EBD50CF0B6C
:102100000010BD6E280E086E00017EDF0F01DCD7C7
:1021100006808B9094908B929492040E076EFA0E28
:10212000086E000171DF072E01D002D00F01F7D732
:102130008B9094908B82949206800550030821E343
:1021400003E10450FB081DE306A01BD0050E042686
:10215000000E052205C002F004C001F00232013277
:1021600002320132023201C0BEFF02320230300BB5
:10217000006EBD50CF0B0010BD6E280E086E44DF00
:10218000DCD70690055203E1045005081DE206B0B5
:102190001BD0050E045E000E055A05C002F004C0F7
:1021A00001F00232013202320132023201C0BEFFBE
:1021B00002320230300B006EBD50CF0B0010BD6EEE
:1021C000280E086E21DFDED706808B9094908B92CC
:1021D0009492020E076EFA0E086E16DF072EFBD7DA
:0621E0000F0146D70300C9
:020000040030CA
:0E00000023C85E3C00D3A1000FC00FE00F40EC
:00000001FF
;PIC18F45K50
;CRC=9479  CREATED="27-sep.-21 13:46"
