:0420000018EF10F0D5
:08200800EA6A050EE96EEF50D3
:102010000EE00F0E016E006A002EFED7012EFBD7D8
:102020008F0E006E002EFED70000EF2EF2D71200AA
:10203000F86AD09E700ED36ED26A9B6A046A0F0152
:102040005B6B5C6B5D6B5E6B5F6B9A6A996A986A9F
:10205000000E936EFF0E926E928480B40FD0042A0D
:10206000936A04C08AFF050E056E0001CDDF9284DD
:1020700080A4FDD7050E056EC7DF0F01EDD7030065
:020000040030CA
:0E00000023C85E3C00D3A1000FC00FE00F40EC
:00000001FF
;PIC18F45K50
;CRC=2298  CREATED="27-sep.-21 11:51"
