:042000000FEF11F0DD
:08200800F76A180FF66E200EB6
:10201000F7220900F5501200280C01062020204D5F
:102020004943524F53494445000020202054454322
:10203000484E4F4C4F47590020204249454E564587
:102040004E49444F5300EA6A090EE96EEF500EE024
:102050000F0E016E006A002EFED7012EFBD78F0EE9
:10206000006E002EFED70000EF2EF2D7120010B047
:1020700002D08A9601D08A86939610B202D08A98AE
:1020800001D08A88939810B402D08A9A01D08A8AA3
:10209000939A10B602D08A9C01D08A8C939C00003F
:1020A00093948A84070E006E002EFED700D093947E
:1020B0008A941200116A93948A8400009386119086
:1020C00081B611809388119281B81182938A1194FC
:1020D00081BA1184938C119681BC118693948A9451
:1020E00011C001F0120093928A820000E3DF01C068
:1020F00010F0E0DF01C00FF01038006EF00E001697
:1021000000500F10016E88EF10F093908A90EBD77B
:1021100001C00FF001BEFBD70D5203E093908A80FF
:1021200002D093908A90000093928A920000939438
:102130008A940E380F6E0F0E0F160FC010F097DF37
:102140000E500F0B0F6E106E92DF120093908A905C
:1021500093928A9293948A940F0E096E74DF066AA2
:102160000650020808E3030E106E81DF050E096EAB
:102170006ADF062AF5D7020E106E79DF066A06506E
:10218000030809E3036A06503FDF076E0D6A0E6E0F
:10219000BCDF062AF4D712000A2C01D003D0400E6F
:1021A0000B6E01D00B6A010E095C0B260B508009E7
:1021B0000C6E0D6A0E6EA9DF120008500C0A05E0C5
:1021C000060A0BE0020A0FE013D00D6A010E0E6E34
:1021D0009CDF020E096E37DF10D0010E096E020E71
:1021E0000A6EDADF0AD00D6A100E0E6E8EDF05D091
:1021F000010E0D6E08C00EF088DF09EF11F0090026
:10220000F5520CE0F6CF06F0F7CF07F0F5CF08F067
:10221000D4D706C0F6FF07C0F7FFF1D71200F86A5F
:10222000D09E700ED36ED26A9B6A056A046A0F0153
:102230005B6B5C6B5D6B5E6B5F6B9A6A996A986AAD
:10224000000184DF320E096EFEDE1C0EF66E200EDB
:10225000F76ED5DF080E066EFA0E096EF4DE062E56
:10226000FBD7010E096E020E0A6E96DF2A0EF66E7D
:10227000200EF76EC4DF080E066EFA0E096EE3DE5E
:10228000062EFBD7010E096E0A6E86DF5FDF040E95
:10229000066EFA0E096ED7DE062EFBD7380EF66EE6
:1022A000200EF76EACDF080E066EFA0E096ECBDE5E
:1022B000062EFBD74BDF080E066EFA0E096EC3DE44
:0822C000062EFBD7C2D7030074
:020000040030CA
:0E00000023C85E3C00D3A1000FC00FE00F40EC
:00000001FF
;PIC18F45K50
;CRC=75F6  CREATED="27-sep.-21 13:43"
