:042000009EEF18F047
:08200800046ED8CF05F0E0CF13
:1020100006F00001E9CF0CF0EACF07F0E1CF08F0BD
:10202000E2CF09F0D9CF0AF0DACF0BF0F3CF12F0FC
:10203000F4CF13F0FACF14F0F5CF15F0F6CF16F079
:10204000F7CF17F000C00EF001C00FF002C010F083
:1020500003C011F0A0AA30EF10F0A1BAA3EF17F05F
:102060000EC000F00FC001F010C002F011C003F06C
:102070000CC0E9FF07C0EAFF078E08C0E1FF09C0F6
:10208000E2FF0AC0D9FF0BC0DAFF12C0F3FF13C092
:10209000F4FF14C0FAFF15C0F5FF16C0F6FF17C015
:1020A000F7FF045006C0E0FF05C0D8FF1000F76A34
:1020B000BE0FF66E200EF7220900F5501200000345
:1020C00002FFFFFFFFFFFFFFFFFFFFFFFFFFF76ABA
:1020D000DE0FF66E200EF7220900F550120000FF09
:1020E00002FFFFFFFFFFFFFFFFFFFFFFFFFFF76A9A
:1020F000FE0FF66E200EF7220900F5501200400088
:102100000B00400000000000000000000000000084
:102110000000000000000000000000000000F76A5E
:102120002E0FF66E210EF7220900F5501200400026
:10213000000040000000000000000000000000005F
:102140000000000000000000000000000000F76A2E
:102150005E0FF66E210EF7220900F55012000902FB
:102160004300020100803209040000010202010064
:1021700005240010010424020205240600010524A0
:10218000010001070581030B00FA09040100020A9E
:10219000000000070502024000010705820240001E
:1021A0000100F76AB20FF66E210EF7220900F55012
:1021B00012000200F76AC40FF66E210EF722090022
:1021C000F550120012171B20FFFFFFFFF76ADC0F0C
:1021D000F66E210EF7220900F550120012011001CF
:1021E0000200004005240B00000101020001F76A13
:1021F000FE0FF66E210EF7220900F55012000403BF
:102200000904080343004300530020034300430034
:1022100053002000550053004200200074006F005E
:10222000200055004100520054006D92699468A44A
:1022300002D06894FCD76898AFEF17F0400E040105
:10224000016F040E0001956F180E95C003F4E8CFDE
:1022500002F4880E0401006F046B040E076F580E21
:10226000066F0001120070A002D0E8DF7090689A3B
:10227000B6EF17F06A6A6892BBEF17F0A191A0BFA2
:10228000A181A09FA051100803E2000E016E16D09C
:10229000A1A10BD0036AA0510ADFFF0802E1000EE2
:1022A00001D0010E016E0AD009D0036AA0510FDFE0
:1022B000FF0802E1000E01D0010E016E1200A551CF
:1022C000A703F3CF01F0F4CF00F0A803F3500026EA
:1022D000A651A703F3500020026E1200036A9F511B
:1022E000700FE96E0F0E0320EA6EEF6A9FC0A0F038
:1022F000C5DF015222E0A66B9FC0A5F0A86B080EB7
:10230000A76FDDDF01C0E9FF040E0224EA6EEF6A69
:10231000A66B9FC0A5F0A86B080EA76FD0DF02C008
:10232000A1F001C0A0F0040EA027000EA123A0C0C0
:10233000E9FF040EA125EA6EEF6A1200010E9E6FFE
:102340009E510F0805E39EC09FF0C8DF9E2BF8D773
:102350001200986B976B250E966F800E956F95C047
:102360002BF096C02CF02D6A2E6A956B95C02FF03D
:10237000956B95C030F0080E956F95C031F0756B78
:102380007491336A326A736B1E90766B1200286AFE
:10239000276A946B945101080AE3036A9451290F48
:1023A000E96E000E0320EA6EEF6A942BF3D7D1DFBB
:1023B0001B6A010E1C6E1A6A1200689612006B6A84
:1023C000696A6A6A686A6E6A706AB8DFE0DF160E68
:1023D000706E68A602D0F1DFFCD79F0E6B6E3D0ECB
:1023E000696E6D982BDF030E226EC0EF17F06984C3
:1023F00069986D82C5EF17F0689CCAEF17F099C015
:1024000023F0120023681200976B275028102DE04C
:1024100097513F082AE31D5005E0020A09E0010A2E
:102420000DE011D026C003F0255091DE986F0BD03F
:1024300026C003F02550DBDE986F05D026C003F0E0
:102440002550C4DE986F252AD8B4262A2750D8B440
:10245000280627069751972B580FE96E040EEA6E4F
:10246000D8B0EA2A98C0EFFFD0D72750281004E14F
:102470009751400801E01A6A97C099F0C0DF120036
:10248000966B266A256A1D6A04011B51010A000128
:1024900007E0030A0BE0010A0DE0220A23E037D02F
:1024A000286A120E276E030E1D6E33D0286A430E63
:1024B000276E2FD0020E1D6E966B04011A5100017B
:1024C000965D09E226C003F0255091DE2526000E18
:1024D0002622962BF2D726C003F0255088DE276EE1
:1024E000286A17D0036A04011A51000163DE256EC1
:1024F000266A253C02D0265208E026C003F025506B
:1025000026DE276E286A05D002D07CDF11D07ADF64
:102510000FD004011F5308E1285203E127501E5D2C
:1025200003E2286A1EC427F0010E1A6E00016CDF58
:10253000C0EF13F0965304E1040E226EFFDECBD001
:10254000050E226E040E996F980E986F010E976F0C
:1025500097510F08D8A0BFD097C09FF0BFDE9A6BED
:10256000036A9751B4DDFF085BE0040E9A6FD890C0
:102570009735036AD4DD0900F5CF03F09B6F03C0E4
:102580009CF0A66B97C0A5F0A86B080EA76F97DE0E
:1025900001C09EF0010E0124016E000E0220036EA8
:1025A00001C0E9FF040E0324EA6E9BC0EFFFA66B97
:1025B00097C0A5F0A86B080EA76F81DE01C09EF042
:1025C000020E0124016E000E0220036E01C0E9FF1D
:1025D000040E0324EA6E99C0ECFFED5298C0EFFFA1
:1025E000D8909735036A9BDD0900F5CF03F0982753
:1025F00003509923880E9D6F9CA101D09D819CA3BF
:1026000001D09D83A66B97C0A5F0A86B080EA76F9D
:1026100056DE01C0E9FF040E0224EA6E9DC0EFFF02
:10262000036A975144DDFF0840E09A83A66B97C088
:10263000A5F0A86B080EA76F42DE02C09FF001C094
:102640009EF0040E9E27000E9F23020E9E25016E13
:10265000000E9F21036E01C0E9FF040E0324EA6E01
:1026600099C0ECFFED5298C0EFFFD8909735036A00
:102670003EDD0900F5CF03F0982703509923A66BA0
:1026800097C0A5F0A86B080EA76F19DE02C09FF0D7
:1026900001C09EF0040E9E27000E9F239EC0E9FFFE
:1026A000040E9F25EA6E400EEF6E9A51060802E175
:1026B0000E0E9A6F036A9751FADC010801E09A89BD
:1026C000036A9751700FE96E0F0E0320EA6E9AC0ED
:1026D000EFFF972B3DD7BAEF13F004011951000A11
:1026E00000010DE0010A14E0020A1FE0060A29E0D9
:1026F000030A2EE00E0A2EE0010A32E040D01CC090
:1027000058F40401596B020E0001996F78DE38D03D
:1027100004011A2D07D0010E1C160001996B6FDE03
:1027200003D0040100016EDE2BD004011A2D06D067
:102730001C820001996B63DE03D00401000162DE9C
:102740001FD0020E1A6E1AC424F0996B58DE18D0EE
:1027500097D616D01BC058F4010E996F50DE10D0DA
:1027600004011A51010809E31AC41BF01AC496F0B7
:102770000001E0D6996B43DE0401000101D042DE86
:1027800032EF15F01BC096F004011951000A000148
:1027900005E00A0A0BE0010A26E037D00401586B75
:1027A000596B020E0001996F2ADE30D0965319E062
:1027B000010E965D036AF5DC016E04011C5DD8A074
:1027C00002D000010ED0036A1C51290FE96E000EE1
:1027D0000320EA6EEFCF58F4010E0001996F0FDE6F
:1027E00001D010DE13D096530EE0036A04011C5191
:1027F000290FE96E000E0320EA6E1AC4EFFF0001F4
:10280000996BFDDD01D0FEDD01D0FCDD32EF15F06E
:10281000979196BF9781969F97A117D0A66B96C068
:10282000A5F0A86B080EA76F4ADD02C099F001C0A1
:1028300098F0040E9827000E992398C0E9FF040E23
:102840009925EA6E880EEF6E0DD0A66B96C0A5F0A6
:10285000A86B080EA76F33DD01C0E9FF040E022448
:10286000EA6EEF6A036A9651700F016E0F0E032233
:1028700001C0E9FF03C0EAFFEF90B3EF14F09791B6
:1028800096BF9781969F97A117D0A66B96C0A5F08B
:10289000A86B080EA76F13DD02C099F001C098F075
:1028A000040E9827000E992398C0E9FF040E99257D
:1028B000EA6E840EEF6E0ED0A66B96C0A5F0A86BE4
:1028C000080EA76FFCDC01C0E9FF040E0224EA6ECB
:1028D000840EEF6EB9EF14F0979196BF9781969F93
:1028E00097A117D0A66B96C0A5F0A86B080EA76F8E
:1028F000E6DC02C09AF001C099F0040E9927000EA0
:102900009A2399C0E9FF040E9A25EA6EEFCF98F05A
:102910000ED0A66B96C0A5F0A86B080EA76FCFDCF3
:1029200001C0E9FF040E0224EA6EEFCF98F098AFE1
:1029300002D098B502D0000E01D0010E016EC3EF97
:1029400014F01CC4A0F09ADC015228E004011951D3
:10295000010A000105E0020A09E0030A0DE01DD0AA
:102960001CC496F055D7996B4ADD18D01CC496F05C
:1029700086D7996B44DD12D00401586B596B1CC487
:1029800096F00001A9D7015204E0010E0401586F2E
:102990000001020E996F33DD01D034DD32EF15F006
:1029A000FE0E236E120004011C2D01D002D01C5318
:1029B0003FE11FC497F01EC496F01951000A0001B0
:1029C0000BE0010A0DE0210A0FE0010A12E0030A00
:1029D00021E0010A24E02AD0010E766FE1DF27D042
:1029E00096C099F00CDD23D0020E766F7481D8DF8B
:1029F0001ED0040EEA6E580EE96EE26A2B0EE16EEE
:102A0000070E016EE6CFEEFF012EFCD7070E996F81
:102A1000F6DC0DD01AC475F0996BF1DC08D01AC43D
:102A200033F01BC432F0996BEADC01D0EBDC04011B
:102A3000000132EF15F01A6A040118517F0B000AE9
:102A4000000107E0010A07E0030A07E0230A07E0A4
:102A500008D043D607D096D605D073D703D0A3D7D6
:102A600001D0D0DC59EF17F0A66B97C0A5F0A86B8A
:102A7000080EA76F24DC01C0E9FF040E0224EA6EF1
:102A8000EFCF99F09851020806E199AD02D0986B0A
:102A900002D0010E986F9851030819E1840E996FC6
:102AA000A66B97C0A5F0A86B080EA76F08DC02C044
:102AB0009DF001C09CF0040E9C27000E9D239CC03D
:102AC000E9FF040E9D25EA6E840EEF6E07D0982D67
:102AD00003D0C80E996F02D0880E996FD8909735A1
:102AE000036A8FEC10F00900F5CF03F09A6F03C072
:102AF0009BF0A66B97C0A5F0A86B080EA76F5FECC4
:102B000011F001C09CF0010E0124016E000E0220A4
:102B1000036E01C0E9FF040E0324EA6E9AC0EFFFC2
:102B20009BA101D099819BA301D09983A66B97C0EB
:102B3000A5F0A86B080EA76F5FEC11F001C0E9FFCC
:102B4000040E0224EA6E99C0EFFF1200036AA4513A
:102B5000700FE96E0F0E0320EA6EEF5219E0A66BBC
:102B6000A4C0A5F0A86B080EA76F5FEC11F002C01F
:102B7000A6F001C0A5F0040EA527000EA623A5C04F
:102B8000E9FF040EA625EA6EEFCFA7F0A7AF02D0AB
:102B9000000E01D0010E016E12009FC0A4F0D6DF1E
:102BA0000152D8B48FD0A66B9FC0A5F0A86B080EB9
:102BB000A76F5FEC11F002C0A5F001C0A4F0040EF5
:102BC000A427000EA523010EA425016E000EA52149
:102BD000036E01C0E9FF040E0324EA6EA0C0EFFFFC
:102BE000A25102081EE1A66B9FC0A5F0A86B080EBB
:102BF000A76F5FEC11F002C0A5F001C0A4F0040EB5
:102C0000A427000EA523A4C0E9FF040EA525EA6EA3
:102C1000EFCFA3F0A3AD02D0A26B02D0010EA26F42
:102C200018D0A251040815E1A66B9FC0A5F0A86BAF
:102C3000080EA76F5FEC11F001C0E9FF040E02243B
:102C4000EA6EEFCFA3F0A3AD03D0010EA26F01D0C7
:102C5000A26BA22D03D0480EA36F02D0080EA36F63
:102C6000A66B9FC0A5F0A86B080EA76F5FEC11F0D4
:102C700002C0A5F001C0A4F0040EA427000EA523F5
:102C8000A4C0E9FF040EA525EA6EA3C0EFFFA66B62
:102C90009FC0A5F0A86B080EA76F5FEC11F002C0F3
:102CA000A5F001C0A4F0040EA427000EA523A4C023
:102CB000E9FF040EA525EA6EEF508009EF6E010EC4
:102CC000016E02D0000E016E12007651010A03E07F
:102CD000030A06E017D0996BFFEC11F0766B13D066
:102CE000EA6A2B0EE96E040EE26E180EE16E070E14
:102CF000016EE6CFEEFF012EFCD7766B996BFFECF1
:102D000011F001D0766BB6EF16F0A66B97C0A5F068
:102D1000A86B080EA76F5FEC11F002C099F001C01C
:102D200098F0010E0124016E000E0220036E01C016
:102D3000E9FF040E0324EA6EEFCF01F0026AACEF64
:102D400016F01E90020E976F986F8EDE12001E8096
:102D5000206A020E976FD9D701C01FF01F5201E100
:102D6000F0DFBBEF16F0965302E1AFD704D09651D7
:102D7000020801E1ECD7120097C06EFF975303E001
:102D8000040E226E02D0020E226ECCEF16F01B6AE9
:102D90001A6A24C097F0F0D738EF17F097C0A4F064
:102DA000D5DE015243E0A66B97C0A5F0A86B080ED4
:102DB000A76F5FEC11F002C0A0F001C09FF0040EFD
:102DC0009F27000EA023020E9F25016E000EA0215A
:102DD000036E01C0E9FF040E0324EA6EECCF9EF0FF
:102DE000ED52EFCF9DF09EC0EAFF9DC0E9FF99C074
:102DF000E2FF98C0E1FF9BC002F09AC001F00152CF
:102E000002E0022A02D0025206E0E6CFEEFF012ED7
:102E1000FCD7022EFAD797C09FF09BC0A1F09AC0B2
:102E2000A0F09CC0A2F0B9DE015002D0000E016EED
:102E3000120073530EE0020E976F996B340E986F69
:102E40009B6B73C09AF0020E9C6FA8DF015201E0E9
:102E5000736B1200EEDF3DEF17F096530AE11A2C68
:102E600003D004EC12F004D01A500208D8B48FD763
:102E700004D09651020801E1EDD712002130946F81
:102E8000943394331F0E9417215241E104010051F1
:102E90003C0B0001956F430E040100170001955192
:102EA00034081EE104010451800B01E0046B0001B1
:102EB000C2D56D98233C05D0976B030E986FD4DD77
:102EC0000ED0976B020E986FCFDD2350FE0807E0FF
:102ED0009F6BA16B23C0A0F0040EA26F5EDE16D024
:102EE0009551040813E1966B3EDF976B020E986FC5
:102EF000BBDD2350FE080AE0233C01D007D09F6BC6
:102F0000A16B23C0A0F0010EA26F47DE1AD02150A2
:102F100004080EE12368966BA0DF233C01D007D0A4
:102F20009F6BA16B23C0A0F0020EA26F36DE09D00A
:102F300021B404D094C096F016DF03D094C096F06C
:102F40008CDFD4EF17F0A19A2252D8B433D0685254
:102F5000D8B430D068A403D069B415EF11F06DB2C5
:102F600029D068AA03D069BA33EF11F068A203D060
:102F700069B23AEF11F068A003D069B0DFEF11F049
:102F800068A803D069B8F7EF11F068AC03D069BC4A
:102F9000FCEF11F0936B68A608D069A606D06CCF41
:102FA00021F0DDEC11F06AD701D004D09351932BBE
:102FB0000308F1E230EF10F04C4544206170616786
:102FC00061646F0A00004C454420656E63656E6461
:102FD00069646F0A00006D926D6A696A080E6F6E0F
:102FE00094503009946E226A196AF2BE198EF29ECC
:102FF000C7EC11F019BEF28EFFEF17F0ECD72AEFF5
:1030000018F0196AF2BE198EF29EC7EC11F019BEC3
:10301000F28E6D926D6A6D8C00D000D000006D9CB8
:10302000140E6F6E696A6D86010E226E1BEF18F02A
:103030006DB601D0E6D7222C0BD06DBA09D0686AE4
:10304000696AA08AC00EF212110E696E020E226E1B
:103050001200D4D7EDDF22500208FCE1B8EF18F0DF
:103060001B50016EBCEF18F01EB001D0FDD72050F0
:10307000202AA30FE96E040EEA6ED8B0EA2AEFCF39
:103080007CF01F50205C07E3196AF2BE198EF29E95
:1030900058DE19BEF28E7CC001F0BFEF18F08191AE
:1030A000A0BA8181A09A73513E0802E23E0E736F6E
:1030B0007351732B036A340FE96E000E0320EA6E1E
:1030C00080C0EFFF81A101D0A08A6AEF18F07FC015
:1030D00080F0E5D7196AF2BE198EF29EAADE19BEFB
:1030E000F28E8DEF18F03F0ED880735513E1196AF8
:1030F000F2BE198EF29E020EA46F28DD19BEF28E6A
:10310000015207E0196AF2BE198EF29E92DE19BED4
:10311000F28EE9D77EC07FF0DAD712000900F552AF
:103120000CE0F6CF7CF0F7CF7DF0F5CF7EF0DBDF63
:103130007CC0F6FF7DC0F7FFF1D71200F86AD09E81
:10314000078E7A6B796BC150C00B0F09C16E070EE9
:10315000B46E776B786BFF0E926EFC0E936E196AED
:10316000F2BE198EF29EA9EC11F019BEF28E71D743
:1031700074A1FED75DDF74D701522CE075D701C072
:103180007BF07B51300808E192988998B80EF66E72
:103190002F0EF76EC3DF1ED07B51310808E19298E5
:1031A0008988C60EF66E2F0EF76EB8DF13D07B51EE
:1031B0003F0810E1928480A407D0300E7E6F93DF29
:1031C0000A0E7E6F90DF06D0310E7E6F8CDF0A0E06
:0831D0007E6F89DFCFD70300F9
:020000040030CA
:0E00000007CC3E1F0087A1000FC00FE00F408D
:00000001FF
;PIC18F4550
;CRC=15D9  CREATED="15-oct.-21 16:51"
