:04200000BFEF12F02C
:08200800F76A180FF66E200EB6
:10201000F7220900F5501200280C01060C54656DDA
:102020007065726174757261200A25332E316643C2
:102030000000EA6A160EE96EEF500EE00F0E016E18
:10204000006A002EFED7012EFBD78F0E006E002EE9
:10205000FED70000EF2EF2D712001DB002D08A96F4
:1020600001D08A8693961DB202D08A9801D08A88C0
:1020700093981DB402D08A9A01D08A8A939A1DB689
:1020800002D08A9C01D08A8C939C000093948A840D
:10209000070E006E002EFED700D093948A94120093
:1020A0001E6A93948A84000093861E9081B61E80D7
:1020B00093881E9281B81E82938A1E9481BA1E84D0
:1020C000938C1E9681BC1E8693948A941EC001F048
:1020D000120093928A820000E3DF01C01DF0E0DF6E
:1020E00001C01CF01D38006EF00E001600501C10D0
:1020F000016E7EEF10F093908A90EBD701C01CF038
:1021000001BEFBD71A5203E093908A8002D09390CD
:102110008A90000093928A92000093948A941B38CC
:102120001C6E0F0E1C161CC01DF097DF1B500F0BF2
:102130001C6E1D6E92DF120093908A9093928A9289
:1021400093948A940F0E166E74DF086A0850020882
:1021500008E3030E1D6E81DF050E166E6ADF082A86
:10216000F5D7020E1D6E79DF086A0850030809E3EF
:10217000036A085049DF096E1A6A1B6EBCDF082A21
:10218000F4D7CBEF12F08E0E006E09C001F008C03C
:1021900002F0036A015209E102C001F0026A080E6E
:1021A000005E015202E1006A08D0D89001BE04D05E
:1021B000023601360006F9D7019EEFEF12F01550F6
:1021C000D8B471D0006E1950D8B46DD0002604E395
:1021D000810E002668E204D07F0E005E64E363E0B7
:1021E00016C01DF01A501D1A168E1A8E18501C0299
:1021F000F4CF1FF017501B02F4CF03F0F3CF1EF003
:102200001C02F3501F26F4501E22000E0322185009
:102210001B02F3501F26F4501E22000E026A0322F6
:10222000022216501C02F3501E26F4500322000E08
:10223000022216501B02F3500326F4500222000E15
:10224000016A012218501A02F3501E26F45003228C
:10225000000E0222012217501A02F3500326F450F6
:102260000222000E012216501A02F3500226F450E8
:102270000122002A01BE05D01E3603360236013681
:102280000006000E1EAE0AD0032A022201220150CF
:1022900005E1025003E1035001E1002A1DBE018E59
:1022A0001DAE019E04D0006A016A026A036A120030
:1022B000172C01D003D0400E186E01D0186A010E01
:1022C000165C182618508009196E1A6A1B6E13DFE7
:1022D0008AEF11F015500C0A05E0060A0BE0020A1D
:1022E0000FE013D01A6A010E1B6E05DF020E166E88
:1022F000A0DE10D0010E166E020E176ED9D70AD0CE
:102300001A6A100E1B6EF7DE05D0010E1A6E15C08C
:102310001BF0F1DE12000900F6CF09F0F7CF0AF04A
:10232000F5CF15F0D7DF09C0F6FF0AC0F7FF082E7A
:10233000F2D717EF13F01550B608156E036A16C0E2
:1023400019F0168ED8901632173218320332023234
:1023500001320032152EF6D719AE0BD0001E011E29
:10236000021E031E002AD8B4012AD8B4022AD8B407
:10237000032A29EF12F0D8B203D0EA6A1D0EE96EE3
:10238000006A016A026A036A1D6A1E6A1F6A206A7D
:102390001C501B101A1019102CE0200E216ED89022
:1023A00015361636173618361D361E361F362036A9
:1023B0001C50205C08E11B501F5C05E11A501E5C9C
:1023C00002E119501D5C0FE319501D5E1A50D8A090
:1023D0001A3C1E5E1B50D8A01B3C1F5E1C50D8A090
:1023E0001C3C205ED8800036013602360336212E92
:1023F000D6D71DC0EFFF1EC0ECFF1FC0ECFF20C0F2
:10240000ECFF1200E9500D6E0C500F6E19E00BC07E
:1024100018F00AC017F009C016F008C015F01C6AC1
:102420001B6A200E1A6E820E196EC9DE03C00BF0F5
:1024300002C00AF001C009F000C008F00F2EE7D773
:102440000BC018F00AC017F009C016F008C015F04C
:1024500072D703C00BF002C00AF001C009F000C03F
:1024600008F00BAE0DD00D060D8A081E091E0A1EBF
:102470000B1E082AD8B4092AD8B40A2AD8B40B2AC1
:102480003B0E146E9A0E136ECA0E126E116A0A0E6D
:102490000F6E0C50D8B40D2AD882EA6A080EE96E85
:1024A0000BC018F00AC017F009C016F008C015F0EC
:1024B00014C01CF013C01BF012C01AF011C019F0A8
:1024C0005ADF015000520FE10C280F5C0CE00D5058
:1024D0000CE00F0B0F5C01E037E20DBE35D00DBCF8
:1024E00004D0200E2DD0200E0D160DAA0CD00D9A62
:1024F0000C50D8A40D0600500D6E2D0E156EEADEA0
:102500000D50006E0D6A0C500F5C0AE100500D6E0C
:102510002E0E156EDFDE0D50006E200E0D16000E15
:10252000300E0DAA0DD00D9A0C50D8A40D060050F7
:102530000D6E2D0E156ECEDE0D50006E0D6A300E36
:10254000002600C015F0C6DED89214C018F013C0E3
:1025500017F012C016F011C015F01C6A1B6A1A6A37
:102560000A0E196E08DF03C014F002C013F001C098
:1025700012F000C011F00F2E8FD724EF13F0F86A7D
:10258000D09EC150C00B0F09C16E070EB46E700E05
:10259000D36ED350D1D5320E166E4BDDC150C00B69
:1025A0000E09C16EC050C00B0109C06EC08EC28042
:1025B000000E016EC250C30B0110C26E640E166E87
:1025C00038DDC282C2B2FED7C4CF02F0C3CF01F061
:1025D000C4CF03F0C3CF08F0C4CF09F0D4D503C0F3
:1025E00007F002C006F001C005F000C004F007C00B
:1025F00018F006C017F005C016F004C015F0230E41
:102600001C6EDB0E1B6E790E1A6E7D0E196ED7DDF9
:1026100003C007F002C006F001C005F000C004F0DE
:102620001C0EF66E200EF76E0E0E086E74D6020E9D
:10263000E96E07C00BF006C00AF005C009F004C03F
:1026400008F0010E0C6EDED6430E156E43DE640EEE
:08265000166EEFDCADD70300AC
:020000040030CA
:0E00000007CC3E1E0087A1000FC00FE00F408E
:00000001FF
;PIC18F4550
;CRC=66D6  CREATED="27-sep.-21 14:01"
