:0420000004EF10F0E9
:08200800F86AD09E700ED36E41
:10201000D26A9B6AB886E10EAF6E040EB06EA60E51
:10202000AC6E900EAB6E0F015B6B5C6B5D6B5E6BB1
:102030005F6B9A6A996A986A9EAAFED7AECF05F03E
:102040000550300803E19298899815D00550310861
:1020500003E1929889880FD005503F080CE19284E3
:1020600080A405D0300E9EA8FED7AD6E04D0310EF0
:0A2070009EA8FED7AD6EE0D7030076
:020000040030CA
:0E00000023C85E3C00D3A1000FC00FE00F40EC
:00000001FF
;PIC18F45K50
;CRC=99DC  CREATED="15-oct.-21 17:30"
