:0420000018EF10F0D5
:08200800EA6A060EE96EEF50D2
:102010000EE00F0E016E006A002EFED7012EFBD7D8
:102020008F0E006E002EFED70000EF2EF2D71200AA
:10203000F86AD09E700ED36ED26A9B6A056A046AF3
:102040000F015B6B5C6B5D6B5E6B5F6B9A6A996A91
:10205000986A000E0609BA6EFE0EBB6E94948B94BD
:102060000C0EBD6EB76AB66A010EB96E5991056A5B
:10207000046A05521FE10450FE081CE305C002F08B
:1020800004C001F00232013202320132023201C0D8
:10209000BEFF02320230300B006EBD50CF0B00107D
:1020A000BD6E050E066E0001AFDF042AD8B4052A06
:1020B0000F01DFD7056A0468045202E105521DE0F2
:1020C00005C002F004C001F00232013202320132D6
:1020D000023201C0BEFF02320230300B006EBD5032
:1020E000CF0B0010BD6E050E066E00018DDF045093
:0E20F000D8B4050604060F01DFD7B9D70300E8
:020000040030CA
:0E00000023C85E3C00D3A1000FC00FE00F40EC
:00000001FF
;PIC18F45K50
;CRC=F024  CREATED="27-sep.-21 12:34"
