:0420000019EF10F0D4
:08200800EA6A060EE96EEF50D2
:102010000EE00F0E016E006A002EFED7012EFBD7D8
:102020008F0E006E002EFED70000EF2EF2D73EEF8F
:1020300010F0F86AD09E700ED36ED26A9B6A0F01C0
:102040005B6B5C6B5D6B5E6B5F6B9A6A996A986A9F
:10205000000E936E0D0E046ED8900434056E006A67
:1020600004BE008000500510046E936A04C08AFF0D
:10207000020E056EFA0E066E0001C6D7052E01D0BF
:0C20800002D00F01F7D70F01E7D70300D3
:020000040030CA
:0E00000023C85E3C00D3A1000FC00FE00F40EC
:00000001FF
;PIC18F45K50
;CRC=B08E  CREATED="27-sep.-21 11:45"
