:0420000018EF10F0D5
:08200800EA6A060EE96EEF50D2
:102010000EE00F0E016E006A002EFED7012EFBD7D8
:102020008F0E006E002EFED70000EF2EF2D71200AA
:10203000F86AD09E700ED36ED26A9B6A0F015B6BFA
:102040005C6B5D6B5E6B5F6B9A6A996A986AA00EB7
:102050007C6E000E936E046A04BE03D004501F0809
:1020600013E304C07BFF936A04C08AFF020E056E6F
:10207000FA0E066E0001C8DF052E01D002D00F0156
:10208000F7D7042A0F01E8D7080E056EFA0E066E80
:102090000001BADF052E01D002D00F01F7D71F0EC5
:1020A000046E04BE0ED004C07BFF936A04C08AFF96
:1020B000020E056EFA0E066EA7DF052EFBD704068C
:1020C000F0D7080E056EFA0E066E9EDF052EFBD7C2
:0620D0000F01C1D703005F
:020000040030CA
:0E00000023C85E3C00D3A1000FC00FE00F40EC
:00000001FF
;PIC18F45K50
;CRC=3EA9  CREATED="27-sep.-21 13:45"
