:04200000B7EF10F036
:082008008E0E006E07C001F00E
:1020100006C002F0036A015209E102C001F0026A3F
:10202000080E005E015202E1006A08D0D89001BE9D
:1020300004D0023601360006F9D7019EF2EF10F007
:102040000650D8B471D0006E0A50D8B46DD00026B6
:1020500004E3810E002668E204D07F0E005E64E394
:1020600063E007C00EF00B500E1A078E0B8E09505E
:102070000D02F4CF10F008500C02F4CF03F0F3CFB0
:102080000FF00D02F3501026F4500F22000E032221
:1020900009500C02F3501026F4500F22000E026A71
:1020A0000322022207500D02F3500F26F4500322A0
:1020B000000E022207500C02F3500326F4500222B5
:1020C000000E016A012209500B02F3500F26F45052
:1020D0000322000E0222012208500B02F3500326B5
:1020E000F4500222000E012207500B02F350022688
:1020F000F4500122002A01BE05D00F360336023605
:1021000001360006000E0FAE0AD0032A0222012279
:10211000015005E1025003E1035001E1002A0EBE27
:10212000018E0EAE019E04D0006A016A026A036A43
:1021300003EF11F08E0E006E0550005E06C002F037
:1021400007C001F0028E005209E0D890025202E16D
:10215000015204E002320132002EF7D706AE05D05C
:10216000011E021E012AD8B4022A0CEF11F0F86AEF
:10217000D09E700ED36ED26A9B6A0F015B6B5C6B54
:102180005D6B5E6B5F6B9A6A996A986A780E060956
:10219000BA6EFE0EBB6E94948B940C0EBD6EB76A35
:1021A000B66A010EB96E5991C150F00BC16E010EA5
:1021B0005B6F000E5F6F5C6F5D6F5E6FC050C00B3A
:1021C0000709C06EC09EC280000E016EC250830B14
:1021D0000110C26EC282C2B2FED7076AC4CF06F037
:1021E000000112D703C009F002C008F001C007F0D7
:1021F00000C006F00A0E0D6ED70E0C6E430E0B6E6D
:102200007F0E0A6E1DD703C008F002C007F001C0A0
:1022100006F000C005F08ED701C004F004C0BEFF78
:062220000F01D2D70300FC
:020000040030CA
:0E00000023C85E3C00D3A1000FC00FE00F40EC
:00000001FF
;PIC18F45K50
;CRC=9809  CREATED="27-sep.-21 13:50"
