:0420000086EF10F067
:08200800046ED8CF05F0E0CF13
:1020100006F00001E9CF0CF0EACF07F0E1CF08F0BD
:10202000E2CF09F0D9CF0AF0DACF0BF0F3CF12F0FC
:10203000F4CF13F0FACF14F0F5CF15F0F6CF16F079
:10204000F7CF17F000C00EF001C00FF002C010F083
:1020500003C011F0F2AA30EF10F0F2B457EF10F015
:102060000EC000F00FC001F010C002F011C003F06C
:102070000CC0E9FF07C0EAFF078E08C0E1FF09C0F6
:10208000E2FF0AC0D9FF0BC0DAFF12C0F3FF13C092
:10209000F4FF14C0FAFF15C0F5FF16C0F6FF17C015
:1020A000F7FF045006C0E0FF05C0D8FF100094946D
:1020B0008B841B80160ED76E940ED66E0000F294A1
:1020C00030EF10F0010E1E5E0CE3EA6A1E0EE96EA0
:1020D000EF5007E0020E006E002EFED700D0EF2E6C
:1020E000F9D71200EA6A1D0EE96EEF500EE00F0EEE
:1020F000016E006A002EFED7012EFBD78F0E006EF8
:10210000002EFED70000EF2EF2D71200F86AD09E04
:10211000078E700ED36ED26A9B6A0F015B6B5C6B8D
:102120005D6B5E6B5F6B9A6A996A986AFB0E946E40
:10213000810ED56EF28AC00EF2121C6A1C3C01D0D0
:1021400015D01BA00FD0020E1D6EFA0E1E6E0001E0
:10215000B9DF1D2E01D002D00F01F7D794948B94D4
:102160001B900F011BA0FED71C2AE8D71C6A1C3C41
:1021700001D015D01BA00FD0010E1D6E0001B2DFE3
:10218000020E1D6EFA0E1E6E9DDF1D2EFBD794945F
:102190008B941B900F011BA0FED71C2AE8D71C6A4A
:1021A0001C3C01D015D01BA00FD0020E1D6E0001EB
:1021B00099DF020E1D6EFA0E1E6E84DF1D2EFBD7F8
:1021C00094948B941B900F011BA0FED71C2AE8D778
:0421D000B4D703007D
:020000040030CA
:0E00000023C85E3C00D3A1000FC00FE00F40EC
:00000001FF
;PIC18F45K50
;CRC=845D  CREATED="27-sep.-21 13:54"
