:0420000018EF10F0D5
:08200800EA6A060EE96EEF50D2
:102010000EE00F0E016E006A002EFED7012EFBD7D8
:102020008F0E006E002EFED70000EF2EF2D71200AA
:10203000F86AD09E700ED36ED26A9B6A0F015B6BFA
:102040005C6B5D6B5E6B5F6B9A6A996A986AFD0E5A
:10205000926E92988988020E056EFA0E066E000145
:10206000D3DF052E01D002D00F01F7D792988998BF
:10207000020E056EFA0E066EC7DF052EFBD70F01A6
:04208000E8D703009A
:020000040030CA
:0E00000023C85E3C00D3A1000FC00FE00F40EC
:00000001FF
;PIC18F45K50
;CRC=3F77  CREATED="15-oct.-21 16:19"
